{
  "contracts/facets/Test1Facet.sol": {
    "Test1Facet": {
      "abi": [
        {
          "anonymous": false,
          "inputs": [
            {
              "indexed": false,
              "internalType": "address",
              "name": "something",
              "type": "address"
            }
          ],
          "name": "TestEvent",
          "type": "event"
        },
        {
          "inputs": [
            {
              "internalType": "bytes4",
              "name": "_interfaceID",
              "type": "bytes4"
            }
          ],
          "name": "supportsInterface",
          "outputs": [
            {
              "internalType": "bool",
              "name": "",
              "type": "bool"
            }
          ],
          "stateMutability": "view",
          "type": "function"
        },
        {
          "inputs": [],
          "name": "test1Func1",
          "outputs": [],
          "stateMutability": "nonpayable",
          "type": "function"
        },
        {
          "inputs": [],
          "name": "test1Func10",
          "outputs": [],
          "stateMutability": "nonpayable",
          "type": "function"
        },
        {
          "inputs": [],
          "name": "test1Func11",
          "outputs": [],
          "stateMutability": "nonpayable",
          "type": "function"
        },
        {
          "inputs": [],
          "name": "test1Func12",
          "outputs": [],
          "stateMutability": "nonpayable",
          "type": "function"
        },
        {
          "inputs": [],
          "name": "test1Func13",
          "outputs": [],
          "stateMutability": "nonpayable",
          "type": "function"
        },
        {
          "inputs": [],
          "name": "test1Func14",
          "outputs": [],
          "stateMutability": "nonpayable",
          "type": "function"
        },
        {
          "inputs": [],
          "name": "test1Func15",
          "outputs": [],
          "stateMutability": "nonpayable",
          "type": "function"
        },
        {
          "inputs": [],
          "name": "test1Func16",
          "outputs": [],
          "stateMutability": "nonpayable",
          "type": "function"
        },
        {
          "inputs": [],
          "name": "test1Func17",
          "outputs": [],
          "stateMutability": "nonpayable",
          "type": "function"
        },
        {
          "inputs": [],
          "name": "test1Func18",
          "outputs": [],
          "stateMutability": "nonpayable",
          "type": "function"
        },
        {
          "inputs": [],
          "name": "test1Func19",
          "outputs": [],
          "stateMutability": "nonpayable",
          "type": "function"
        },
        {
          "inputs": [],
          "name": "test1Func2",
          "outputs": [
            {
              "internalType": "address",
              "name": "",
              "type": "address"
            }
          ],
          "stateMutability": "view",
          "type": "function"
        },
        {
          "inputs": [],
          "name": "test1Func20",
          "outputs": [],
          "stateMutability": "nonpayable",
          "type": "function"
        },
        {
          "inputs": [],
          "name": "test1Func3",
          "outputs": [],
          "stateMutability": "nonpayable",
          "type": "function"
        },
        {
          "inputs": [],
          "name": "test1Func4",
          "outputs": [],
          "stateMutability": "nonpayable",
          "type": "function"
        },
        {
          "inputs": [],
          "name": "test1Func5",
          "outputs": [],
          "stateMutability": "nonpayable",
          "type": "function"
        },
        {
          "inputs": [],
          "name": "test1Func6",
          "outputs": [],
          "stateMutability": "nonpayable",
          "type": "function"
        },
        {
          "inputs": [],
          "name": "test1Func7",
          "outputs": [],
          "stateMutability": "nonpayable",
          "type": "function"
        },
        {
          "inputs": [],
          "name": "test1Func8",
          "outputs": [],
          "stateMutability": "nonpayable",
          "type": "function"
        },
        {
          "inputs": [],
          "name": "test1Func9",
          "outputs": [],
          "stateMutability": "nonpayable",
          "type": "function"
        }
      ],
      "evm": {
        "bytecode": {
          "linkReferences": {},
          "object": "608060405234801561001057600080fd5b50610497806100206000396000f3fe608060405234801561001057600080fd5b50600436106101375760003560e01c806351b68a4d116100b85780639abf97aa1161007c5780639abf97aa1461020c578063b0e8fcc714610216578063cbb835f614610220578063cd0bae091461022a578063cf3bbe1814610234578063db32da151461023e57610137565b806351b68a4d146101da57806371a99d6f146101e457806377e9d0d6146101ee57806381b5207d146101f857806387952d221461020257610137565b806324c1d5a7116100ff57806324c1d5a7146101a8578063292c460d146101b25780632cb83248146101bc5780634484b3b9146101c657806350eb3f43146101d057610137565b806301ffc9a71461013c5780630716c2ae1461016c578063110460471461018a57806319c841ab1461019457806319e3b5331461019e575b600080fd5b610156600480360381019061015191906103a2565b610248565b60405161016391906103ea565b60405180910390f35b61017461024f565b6040516101819190610446565b60405180910390f35b61019261025e565b005b61019c610260565b005b6101a6610262565b005b6101b061026d565b005b6101ba61026f565b005b6101c4610271565b005b6101ce610273565b005b6101d8610275565b005b6101e2610277565b005b6101ec610279565b005b6101f661027b565b005b61020061027d565b005b61020a61027f565b005b610214610281565b005b61021e610283565b005b610228610285565b005b610232610287565b005b61023c610289565b005b61024661028b565b005b6000919050565b600061025961028d565b905090565b565b565b61026b306102c5565b565b565b565b565b565b565b565b565b565b565b565b565b565b565b565b565b565b600080610298610318565b90508060000160009054906101000a900473ffffffffffffffffffffffffffffffffffffffff1691505090565b60006102cf610318565b9050818160000160006101000a81548173ffffffffffffffffffffffffffffffffffffffff021916908373ffffffffffffffffffffffffffffffffffffffff1602179055505050565b6000807fe172d0f8decaecdd4c56ac9d5abd3aebbc2d423f323d7c1b0d0a8a21feef1df390508091505090565b600080fd5b60007fffffffff0000000000000000000000000000000000000000000000000000000082169050919050565b61037f8161034a565b811461038a57600080fd5b50565b60008135905061039c81610376565b92915050565b6000602082840312156103b8576103b7610345565b5b60006103c68482850161038d565b91505092915050565b60008115159050919050565b6103e4816103cf565b82525050565b60006020820190506103ff60008301846103db565b92915050565b600073ffffffffffffffffffffffffffffffffffffffff82169050919050565b600061043082610405565b9050919050565b61044081610425565b82525050565b600060208201905061045b6000830184610437565b9291505056fea26469706673582212201a28c93b1ecb403e6c4de75bbb114f33b7aa18149aba54486eadc55bfd16246764736f6c63430008110033",
          "opcodes": "PUSH1 0x80 PUSH1 0x40 MSTORE CALLVALUE DUP1 ISZERO PUSH2 0x10 JUMPI PUSH1 0x0 DUP1 REVERT JUMPDEST POP PUSH2 0x497 DUP1 PUSH2 0x20 PUSH1 0x0 CODECOPY PUSH1 0x0 RETURN INVALID PUSH1 0x80 PUSH1 0x40 MSTORE CALLVALUE DUP1 ISZERO PUSH2 0x10 JUMPI PUSH1 0x0 DUP1 REVERT JUMPDEST POP PUSH1 0x4 CALLDATASIZE LT PUSH2 0x137 JUMPI PUSH1 0x0 CALLDATALOAD PUSH1 0xE0 SHR DUP1 PUSH4 0x51B68A4D GT PUSH2 0xB8 JUMPI DUP1 PUSH4 0x9ABF97AA GT PUSH2 0x7C JUMPI DUP1 PUSH4 0x9ABF97AA EQ PUSH2 0x20C JUMPI DUP1 PUSH4 0xB0E8FCC7 EQ PUSH2 0x216 JUMPI DUP1 PUSH4 0xCBB835F6 EQ PUSH2 0x220 JUMPI DUP1 PUSH4 0xCD0BAE09 EQ PUSH2 0x22A JUMPI DUP1 PUSH4 0xCF3BBE18 EQ PUSH2 0x234 JUMPI DUP1 PUSH4 0xDB32DA15 EQ PUSH2 0x23E JUMPI PUSH2 0x137 JUMP JUMPDEST DUP1 PUSH4 0x51B68A4D EQ PUSH2 0x1DA JUMPI DUP1 PUSH4 0x71A99D6F EQ PUSH2 0x1E4 JUMPI DUP1 PUSH4 0x77E9D0D6 EQ PUSH2 0x1EE JUMPI DUP1 PUSH4 0x81B5207D EQ PUSH2 0x1F8 JUMPI DUP1 PUSH4 0x87952D22 EQ PUSH2 0x202 JUMPI PUSH2 0x137 JUMP JUMPDEST DUP1 PUSH4 0x24C1D5A7 GT PUSH2 0xFF JUMPI DUP1 PUSH4 0x24C1D5A7 EQ PUSH2 0x1A8 JUMPI DUP1 PUSH4 0x292C460D EQ PUSH2 0x1B2 JUMPI DUP1 PUSH4 0x2CB83248 EQ PUSH2 0x1BC JUMPI DUP1 PUSH4 0x4484B3B9 EQ PUSH2 0x1C6 JUMPI DUP1 PUSH4 0x50EB3F43 EQ PUSH2 0x1D0 JUMPI PUSH2 0x137 JUMP JUMPDEST DUP1 PUSH4 0x1FFC9A7 EQ PUSH2 0x13C JUMPI DUP1 PUSH4 0x716C2AE EQ PUSH2 0x16C JUMPI DUP1 PUSH4 0x11046047 EQ PUSH2 0x18A JUMPI DUP1 PUSH4 0x19C841AB EQ PUSH2 0x194 JUMPI DUP1 PUSH4 0x19E3B533 EQ PUSH2 0x19E JUMPI JUMPDEST PUSH1 0x0 DUP1 REVERT JUMPDEST PUSH2 0x156 PUSH1 0x4 DUP1 CALLDATASIZE SUB DUP2 ADD SWAP1 PUSH2 0x151 SWAP2 SWAP1 PUSH2 0x3A2 JUMP JUMPDEST PUSH2 0x248 JUMP JUMPDEST PUSH1 0x40 MLOAD PUSH2 0x163 SWAP2 SWAP1 PUSH2 0x3EA JUMP JUMPDEST PUSH1 0x40 MLOAD DUP1 SWAP2 SUB SWAP1 RETURN JUMPDEST PUSH2 0x174 PUSH2 0x24F JUMP JUMPDEST PUSH1 0x40 MLOAD PUSH2 0x181 SWAP2 SWAP1 PUSH2 0x446 JUMP JUMPDEST PUSH1 0x40 MLOAD DUP1 SWAP2 SUB SWAP1 RETURN JUMPDEST PUSH2 0x192 PUSH2 0x25E JUMP JUMPDEST STOP JUMPDEST PUSH2 0x19C PUSH2 0x260 JUMP JUMPDEST STOP JUMPDEST PUSH2 0x1A6 PUSH2 0x262 JUMP JUMPDEST STOP JUMPDEST PUSH2 0x1B0 PUSH2 0x26D JUMP JUMPDEST STOP JUMPDEST PUSH2 0x1BA PUSH2 0x26F JUMP JUMPDEST STOP JUMPDEST PUSH2 0x1C4 PUSH2 0x271 JUMP JUMPDEST STOP JUMPDEST PUSH2 0x1CE PUSH2 0x273 JUMP JUMPDEST STOP JUMPDEST PUSH2 0x1D8 PUSH2 0x275 JUMP JUMPDEST STOP JUMPDEST PUSH2 0x1E2 PUSH2 0x277 JUMP JUMPDEST STOP JUMPDEST PUSH2 0x1EC PUSH2 0x279 JUMP JUMPDEST STOP JUMPDEST PUSH2 0x1F6 PUSH2 0x27B JUMP JUMPDEST STOP JUMPDEST PUSH2 0x200 PUSH2 0x27D JUMP JUMPDEST STOP JUMPDEST PUSH2 0x20A PUSH2 0x27F JUMP JUMPDEST STOP JUMPDEST PUSH2 0x214 PUSH2 0x281 JUMP JUMPDEST STOP JUMPDEST PUSH2 0x21E PUSH2 0x283 JUMP JUMPDEST STOP JUMPDEST PUSH2 0x228 PUSH2 0x285 JUMP JUMPDEST STOP JUMPDEST PUSH2 0x232 PUSH2 0x287 JUMP JUMPDEST STOP JUMPDEST PUSH2 0x23C PUSH2 0x289 JUMP JUMPDEST STOP JUMPDEST PUSH2 0x246 PUSH2 0x28B JUMP JUMPDEST STOP JUMPDEST PUSH1 0x0 SWAP2 SWAP1 POP JUMP JUMPDEST PUSH1 0x0 PUSH2 0x259 PUSH2 0x28D JUMP JUMPDEST SWAP1 POP SWAP1 JUMP JUMPDEST JUMP JUMPDEST JUMP JUMPDEST PUSH2 0x26B ADDRESS PUSH2 0x2C5 JUMP JUMPDEST JUMP JUMPDEST JUMP JUMPDEST JUMP JUMPDEST JUMP JUMPDEST JUMP JUMPDEST JUMP JUMPDEST JUMP JUMPDEST JUMP JUMPDEST JUMP JUMPDEST JUMP JUMPDEST JUMP JUMPDEST JUMP JUMPDEST JUMP JUMPDEST JUMP JUMPDEST JUMP JUMPDEST JUMP JUMPDEST JUMP JUMPDEST PUSH1 0x0 DUP1 PUSH2 0x298 PUSH2 0x318 JUMP JUMPDEST SWAP1 POP DUP1 PUSH1 0x0 ADD PUSH1 0x0 SWAP1 SLOAD SWAP1 PUSH2 0x100 EXP SWAP1 DIV PUSH20 0xFFFFFFFFFFFFFFFFFFFFFFFFFFFFFFFFFFFFFFFF AND SWAP2 POP POP SWAP1 JUMP JUMPDEST PUSH1 0x0 PUSH2 0x2CF PUSH2 0x318 JUMP JUMPDEST SWAP1 POP DUP2 DUP2 PUSH1 0x0 ADD PUSH1 0x0 PUSH2 0x100 EXP DUP2 SLOAD DUP2 PUSH20 0xFFFFFFFFFFFFFFFFFFFFFFFFFFFFFFFFFFFFFFFF MUL NOT AND SWAP1 DUP4 PUSH20 0xFFFFFFFFFFFFFFFFFFFFFFFFFFFFFFFFFFFFFFFF AND MUL OR SWAP1 SSTORE POP POP POP JUMP JUMPDEST PUSH1 0x0 DUP1 PUSH32 0xE172D0F8DECAECDD4C56AC9D5ABD3AEBBC2D423F323D7C1B0D0A8A21FEEF1DF3 SWAP1 POP DUP1 SWAP2 POP POP SWAP1 JUMP JUMPDEST PUSH1 0x0 DUP1 REVERT JUMPDEST PUSH1 0x0 PUSH32 0xFFFFFFFF00000000000000000000000000000000000000000000000000000000 DUP3 AND SWAP1 POP SWAP2 SWAP1 POP JUMP JUMPDEST PUSH2 0x37F DUP2 PUSH2 0x34A JUMP JUMPDEST DUP2 EQ PUSH2 0x38A JUMPI PUSH1 0x0 DUP1 REVERT JUMPDEST POP JUMP JUMPDEST PUSH1 0x0 DUP2 CALLDATALOAD SWAP1 POP PUSH2 0x39C DUP2 PUSH2 0x376 JUMP JUMPDEST SWAP3 SWAP2 POP POP JUMP JUMPDEST PUSH1 0x0 PUSH1 0x20 DUP3 DUP5 SUB SLT ISZERO PUSH2 0x3B8 JUMPI PUSH2 0x3B7 PUSH2 0x345 JUMP JUMPDEST JUMPDEST PUSH1 0x0 PUSH2 0x3C6 DUP5 DUP3 DUP6 ADD PUSH2 0x38D JUMP JUMPDEST SWAP2 POP POP SWAP3 SWAP2 POP POP JUMP JUMPDEST PUSH1 0x0 DUP2 ISZERO ISZERO SWAP1 POP SWAP2 SWAP1 POP JUMP JUMPDEST PUSH2 0x3E4 DUP2 PUSH2 0x3CF JUMP JUMPDEST DUP3 MSTORE POP POP JUMP JUMPDEST PUSH1 0x0 PUSH1 0x20 DUP3 ADD SWAP1 POP PUSH2 0x3FF PUSH1 0x0 DUP4 ADD DUP5 PUSH2 0x3DB JUMP JUMPDEST SWAP3 SWAP2 POP POP JUMP JUMPDEST PUSH1 0x0 PUSH20 0xFFFFFFFFFFFFFFFFFFFFFFFFFFFFFFFFFFFFFFFF DUP3 AND SWAP1 POP SWAP2 SWAP1 POP JUMP JUMPDEST PUSH1 0x0 PUSH2 0x430 DUP3 PUSH2 0x405 JUMP JUMPDEST SWAP1 POP SWAP2 SWAP1 POP JUMP JUMPDEST PUSH2 0x440 DUP2 PUSH2 0x425 JUMP JUMPDEST DUP3 MSTORE POP POP JUMP JUMPDEST PUSH1 0x0 PUSH1 0x20 DUP3 ADD SWAP1 POP PUSH2 0x45B PUSH1 0x0 DUP4 ADD DUP5 PUSH2 0x437 JUMP JUMPDEST SWAP3 SWAP2 POP POP JUMP INVALID LOG2 PUSH5 0x6970667358 0x22 SLT KECCAK256 BYTE 0x28 0xC9 EXTCODESIZE 0x1E 0xCB BLOCKHASH RETURNDATACOPY PUSH13 0x4DE75BBB114F33B7AA18149ABA SLOAD BASEFEE PUSH15 0xADC55BFD16246764736F6C63430008 GT STOP CALLER "
        },
        "methodIdentifiers": {
          "supportsInterface(bytes4)": "01ffc9a7",
          "test1Func1()": "19e3b533",
          "test1Func10()": "87952d22",
          "test1Func11()": "50eb3f43",
          "test1Func12()": "81b5207d",
          "test1Func13()": "19c841ab",
          "test1Func14()": "51b68a4d",
          "test1Func15()": "2cb83248",
          "test1Func16()": "77e9d0d6",
          "test1Func17()": "4484b3b9",
          "test1Func18()": "9abf97aa",
          "test1Func19()": "292c460d",
          "test1Func2()": "0716c2ae",
          "test1Func20()": "b0e8fcc7",
          "test1Func3()": "11046047",
          "test1Func4()": "cf3bbe18",
          "test1Func5()": "24c1d5a7",
          "test1Func6()": "cbb835f6",
          "test1Func7()": "71a99d6f",
          "test1Func8()": "db32da15",
          "test1Func9()": "cd0bae09"
        }
      }
    }
  }
}