{
  "_format": "hh-sol-artifact-1",
  "contractName": "Test1Facet",
  "sourceName": "contracts/facets/Test1Facet.sol",
  "abi": [
    {
      "anonymous": false,
      "inputs": [
        {
          "indexed": false,
          "internalType": "address",
          "name": "something",
          "type": "address"
        }
      ],
      "name": "TestEvent",
      "type": "event"
    },
    {
      "inputs": [
        {
          "internalType": "bytes4",
          "name": "_interfaceID",
          "type": "bytes4"
        }
      ],
      "name": "supportsInterface",
      "outputs": [
        {
          "internalType": "bool",
          "name": "",
          "type": "bool"
        }
      ],
      "stateMutability": "view",
      "type": "function"
    },
    {
      "inputs": [],
      "name": "test1Func1",
      "outputs": [],
      "stateMutability": "nonpayable",
      "type": "function"
    },
    {
      "inputs": [],
      "name": "test1Func10",
      "outputs": [],
      "stateMutability": "nonpayable",
      "type": "function"
    },
    {
      "inputs": [],
      "name": "test1Func11",
      "outputs": [],
      "stateMutability": "nonpayable",
      "type": "function"
    },
    {
      "inputs": [],
      "name": "test1Func12",
      "outputs": [],
      "stateMutability": "nonpayable",
      "type": "function"
    },
    {
      "inputs": [],
      "name": "test1Func13",
      "outputs": [],
      "stateMutability": "nonpayable",
      "type": "function"
    },
    {
      "inputs": [],
      "name": "test1Func14",
      "outputs": [],
      "stateMutability": "nonpayable",
      "type": "function"
    },
    {
      "inputs": [],
      "name": "test1Func15",
      "outputs": [],
      "stateMutability": "nonpayable",
      "type": "function"
    },
    {
      "inputs": [],
      "name": "test1Func16",
      "outputs": [],
      "stateMutability": "nonpayable",
      "type": "function"
    },
    {
      "inputs": [],
      "name": "test1Func17",
      "outputs": [],
      "stateMutability": "nonpayable",
      "type": "function"
    },
    {
      "inputs": [],
      "name": "test1Func18",
      "outputs": [],
      "stateMutability": "nonpayable",
      "type": "function"
    },
    {
      "inputs": [],
      "name": "test1Func19",
      "outputs": [],
      "stateMutability": "nonpayable",
      "type": "function"
    },
    {
      "inputs": [],
      "name": "test1Func2",
      "outputs": [
        {
          "internalType": "address",
          "name": "",
          "type": "address"
        }
      ],
      "stateMutability": "view",
      "type": "function"
    },
    {
      "inputs": [],
      "name": "test1Func20",
      "outputs": [],
      "stateMutability": "nonpayable",
      "type": "function"
    },
    {
      "inputs": [],
      "name": "test1Func3",
      "outputs": [],
      "stateMutability": "nonpayable",
      "type": "function"
    },
    {
      "inputs": [],
      "name": "test1Func4",
      "outputs": [],
      "stateMutability": "nonpayable",
      "type": "function"
    },
    {
      "inputs": [],
      "name": "test1Func5",
      "outputs": [],
      "stateMutability": "nonpayable",
      "type": "function"
    },
    {
      "inputs": [],
      "name": "test1Func6",
      "outputs": [],
      "stateMutability": "nonpayable",
      "type": "function"
    },
    {
      "inputs": [],
      "name": "test1Func7",
      "outputs": [],
      "stateMutability": "nonpayable",
      "type": "function"
    },
    {
      "inputs": [],
      "name": "test1Func8",
      "outputs": [],
      "stateMutability": "nonpayable",
      "type": "function"
    },
    {
      "inputs": [],
      "name": "test1Func9",
      "outputs": [],
      "stateMutability": "nonpayable",
      "type": "function"
    }
  ],
  "bytecode": "0x608060405234801561001057600080fd5b50610497806100206000396000f3fe608060405234801561001057600080fd5b50600436106101375760003560e01c806351b68a4d116100b85780639abf97aa1161007c5780639abf97aa1461020c578063b0e8fcc714610216578063cbb835f614610220578063cd0bae091461022a578063cf3bbe1814610234578063db32da151461023e57610137565b806351b68a4d146101da57806371a99d6f146101e457806377e9d0d6146101ee57806381b5207d146101f857806387952d221461020257610137565b806324c1d5a7116100ff57806324c1d5a7146101a8578063292c460d146101b25780632cb83248146101bc5780634484b3b9146101c657806350eb3f43146101d057610137565b806301ffc9a71461013c5780630716c2ae1461016c578063110460471461018a57806319c841ab1461019457806319e3b5331461019e575b600080fd5b610156600480360381019061015191906103a2565b610248565b60405161016391906103ea565b60405180910390f35b61017461024f565b6040516101819190610446565b60405180910390f35b61019261025e565b005b61019c610260565b005b6101a6610262565b005b6101b061026d565b005b6101ba61026f565b005b6101c4610271565b005b6101ce610273565b005b6101d8610275565b005b6101e2610277565b005b6101ec610279565b005b6101f661027b565b005b61020061027d565b005b61020a61027f565b005b610214610281565b005b61021e610283565b005b610228610285565b005b610232610287565b005b61023c610289565b005b61024661028b565b005b6000919050565b600061025961028d565b905090565b565b565b61026b306102c5565b565b565b565b565b565b565b565b565b565b565b565b565b565b565b565b565b565b600080610298610318565b90508060000160009054906101000a900473ffffffffffffffffffffffffffffffffffffffff1691505090565b60006102cf610318565b9050818160000160006101000a81548173ffffffffffffffffffffffffffffffffffffffff021916908373ffffffffffffffffffffffffffffffffffffffff1602179055505050565b6000807fe172d0f8decaecdd4c56ac9d5abd3aebbc2d423f323d7c1b0d0a8a21feef1df390508091505090565b600080fd5b60007fffffffff0000000000000000000000000000000000000000000000000000000082169050919050565b61037f8161034a565b811461038a57600080fd5b50565b60008135905061039c81610376565b92915050565b6000602082840312156103b8576103b7610345565b5b60006103c68482850161038d565b91505092915050565b60008115159050919050565b6103e4816103cf565b82525050565b60006020820190506103ff60008301846103db565b92915050565b600073ffffffffffffffffffffffffffffffffffffffff82169050919050565b600061043082610405565b9050919050565b61044081610425565b82525050565b600060208201905061045b6000830184610437565b9291505056fea26469706673582212201a28c93b1ecb403e6c4de75bbb114f33b7aa18149aba54486eadc55bfd16246764736f6c63430008110033",
  "linkReferences": {},
  "deployedLinkReferences": {}
}