{
  "_format": "hh-sol-artifact-1",
  "contractName": "DiamondMultiInit",
  "sourceName": "contracts/upgradeInitializers/DiamondMultiInit.sol",
  "abi": [
    {
      "inputs": [
        {
          "internalType": "uint256",
          "name": "_addressesLength",
          "type": "uint256"
        },
        {
          "internalType": "uint256",
          "name": "_calldataLength",
          "type": "uint256"
        }
      ],
      "name": "AddressAndCalldataLengthDoNotMatch",
      "type": "error"
    },
    {
      "inputs": [
        {
          "internalType": "address",
          "name": "_initializationContractAddress",
          "type": "address"
        },
        {
          "internalType": "bytes",
          "name": "_calldata",
          "type": "bytes"
        }
      ],
      "name": "InitializationFunctionReverted",
      "type": "error"
    },
    {
      "inputs": [
        {
          "internalType": "address",
          "name": "_contractAddress",
          "type": "address"
        },
        {
          "internalType": "string",
          "name": "_message",
          "type": "string"
        }
      ],
      "name": "NoBytecodeAtAddress",
      "type": "error"
    },
    {
      "inputs": [
        {
          "internalType": "address[]",
          "name": "_addresses",
          "type": "address[]"
        },
        {
          "internalType": "bytes[]",
          "name": "_calldata",
          "type": "bytes[]"
        }
      ],
      "name": "multiInit",
      "outputs": [],
      "stateMutability": "nonpayable",
      "type": "function"
    }
  ],
  "bytecode": "0x608060405234801561001057600080fd5b50610802806100206000396000f3fe608060405234801561001057600080fd5b506004361061002b5760003560e01c80636e02fa3c14610030575b600080fd5b61004a60048036038101906100459190610397565b61004c565b005b81819050848490501461009e5783839050828290506040517f7340e166000000000000000000000000000000000000000000000000000000008152600401610095929190610431565b60405180910390fd5b60005b84849050811015610157576101448585838181106100c2576100c161045a565b5b90506020020160208101906100d791906104e7565b8484848181106100ea576100e961045a565b5b90506020028101906100fc9190610523565b8080601f016020809104026020016040519081016040528093929190818152602001838380828437600081840152601f19601f8201169050808301925050505050505061015e565b808061014f906105b5565b9150506100a1565b5050505050565b600073ffffffffffffffffffffffffffffffffffffffff168273ffffffffffffffffffffffffffffffffffffffff16031561027c576101b5826040518060600160405280602881526020016107a560289139610280565b6000808373ffffffffffffffffffffffffffffffffffffffff16836040516101dd919061066e565b600060405180830381855af49150503d8060008114610218576040519150601f19603f3d011682016040523d82523d6000602084013e61021d565b606091505b5091509150816102795760008151111561023a5780518082602001fd5b83836040517f192105d70000000000000000000000000000000000000000000000000000000081526004016102709291906106ef565b60405180910390fd5b50505b5050565b6000823b9050600081036102cd5782826040517f919834b90000000000000000000000000000000000000000000000000000000081526004016102c4929190610774565b60405180910390fd5b505050565b600080fd5b600080fd5b600080fd5b600080fd5b600080fd5b60008083601f840112610301576103006102dc565b5b8235905067ffffffffffffffff81111561031e5761031d6102e1565b5b60208301915083602082028301111561033a576103396102e6565b5b9250929050565b60008083601f840112610357576103566102dc565b5b8235905067ffffffffffffffff811115610374576103736102e1565b5b6020830191508360208202830111156103905761038f6102e6565b5b9250929050565b600080600080604085870312156103b1576103b06102d2565b5b600085013567ffffffffffffffff8111156103cf576103ce6102d7565b5b6103db878288016102eb565b9450945050602085013567ffffffffffffffff8111156103fe576103fd6102d7565b5b61040a87828801610341565b925092505092959194509250565b6000819050919050565b61042b81610418565b82525050565b60006040820190506104466000830185610422565b6104536020830184610422565b9392505050565b7f4e487b7100000000000000000000000000000000000000000000000000000000600052603260045260246000fd5b600073ffffffffffffffffffffffffffffffffffffffff82169050919050565b60006104b482610489565b9050919050565b6104c4816104a9565b81146104cf57600080fd5b50565b6000813590506104e1816104bb565b92915050565b6000602082840312156104fd576104fc6102d2565b5b600061050b848285016104d2565b91505092915050565b600080fd5b600080fd5b600080fd5b600080833560016020038436030381126105405761053f610514565b5b80840192508235915067ffffffffffffffff82111561056257610561610519565b5b60208301925060018202360383131561057e5761057d61051e565b5b509250929050565b7f4e487b7100000000000000000000000000000000000000000000000000000000600052601160045260246000fd5b60006105c082610418565b91507fffffffffffffffffffffffffffffffffffffffffffffffffffffffffffffffff82036105f2576105f1610586565b5b600182019050919050565b600081519050919050565b600081905092915050565b60005b83811015610631578082015181840152602081019050610616565b60008484015250505050565b6000610648826105fd565b6106528185610608565b9350610662818560208601610613565b80840191505092915050565b600061067a828461063d565b915081905092915050565b61068e816104a9565b82525050565b600082825260208201905092915050565b6000601f19601f8301169050919050565b60006106c1826105fd565b6106cb8185610694565b93506106db818560208601610613565b6106e4816106a5565b840191505092915050565b60006040820190506107046000830185610685565b818103602083015261071681846106b6565b90509392505050565b600081519050919050565b600082825260208201905092915050565b60006107468261071f565b610750818561072a565b9350610760818560208601610613565b610769816106a5565b840191505092915050565b60006040820190506107896000830185610685565b818103602083015261079b818461073b565b9050939250505056fe4c69624469616d6f6e644375743a205f696e6974206164647265737320686173206e6f20636f6465a26469706673582212208753e97318ef82b04085ce2403fba50ab93ded77e423cd966579009fde5459c264736f6c63430008110033",
  "linkReferences": {},
  "deployedLinkReferences": {}
}