{
  "_format": "hh-sol-artifact-1",
  "contractName": "FacetA",
  "sourceName": "contracts/facets/FacetA.sol",
  "abi": [
    {
      "inputs": [],
      "name": "getDataA",
      "outputs": [
        {
          "internalType": "bytes32",
          "name": "",
          "type": "bytes32"
        }
      ],
      "stateMutability": "view",
      "type": "function"
    },
    {
      "inputs": [
        {
          "internalType": "bytes32",
          "name": "_dataA",
          "type": "bytes32"
        }
      ],
      "name": "setDataA",
      "outputs": [],
      "stateMutability": "nonpayable",
      "type": "function"
    }
  ],
  "bytecode": "0x608060405234801561001057600080fd5b50610196806100206000396000f3fe608060405234801561001057600080fd5b50600436106100365760003560e01c8063a46cf4b31461003b578063ec643efd14610059575b600080fd5b610043610075565b60405161005091906100e7565b60405180910390f35b610073600480360381019061006e9190610133565b610088565b005b600061007f6100a1565b60010154905090565b60006100926100a1565b90508181600101819055505050565b6000807f13f464f5b1a0affee1715000e48aa76e15a8bafca7bfca161fb73dde5768e2b290508091505090565b6000819050919050565b6100e1816100ce565b82525050565b60006020820190506100fc60008301846100d8565b92915050565b600080fd5b610110816100ce565b811461011b57600080fd5b50565b60008135905061012d81610107565b92915050565b60006020828403121561014957610148610102565b5b60006101578482850161011e565b9150509291505056fea26469706673582212204c71fca9042d3554b8a957ec723eebec74a502a7aeb5c8e8aad771b7fb95791b64736f6c63430008110033",
  "linkReferences": {},
  "deployedLinkReferences": {}
}